{
  "_format": "hh-sol-artifact-1",
  "contractName": "MyNFTCollection",
  "sourceName": "contracts/MyNFTCollection.sol",
  "abi": [
    {
      "inputs": [
        {
          "internalType": "string",
          "name": "baseURI",
          "type": "string"
        }
      ],
      "stateMutability": "nonpayable",
      "type": "constructor"
    },
    {
      "anonymous": false,
      "inputs": [
        {
          "indexed": true,
          "internalType": "address",
          "name": "owner",
          "type": "address"
        },
        {
          "indexed": true,
          "internalType": "address",
          "name": "approved",
          "type": "address"
        },
        {
          "indexed": true,
          "internalType": "uint256",
          "name": "tokenId",
          "type": "uint256"
        }
      ],
      "name": "Approval",
      "type": "event"
    },
    {
      "anonymous": false,
      "inputs": [
        {
          "indexed": true,
          "internalType": "address",
          "name": "owner",
          "type": "address"
        },
        {
          "indexed": true,
          "internalType": "address",
          "name": "operator",
          "type": "address"
        },
        {
          "indexed": false,
          "internalType": "bool",
          "name": "approved",
          "type": "bool"
        }
      ],
      "name": "ApprovalForAll",
      "type": "event"
    },
    {
      "anonymous": false,
      "inputs": [
        {
          "indexed": false,
          "internalType": "uint256",
          "name": "_fromTokenId",
          "type": "uint256"
        },
        {
          "indexed": false,
          "internalType": "uint256",
          "name": "_toTokenId",
          "type": "uint256"
        }
      ],
      "name": "BatchMetadataUpdate",
      "type": "event"
    },
    {
      "anonymous": false,
      "inputs": [
        {
          "indexed": false,
          "internalType": "uint256",
          "name": "_tokenId",
          "type": "uint256"
        }
      ],
      "name": "MetadataUpdate",
      "type": "event"
    },
    {
      "anonymous": false,
      "inputs": [
        {
          "indexed": true,
          "internalType": "address",
          "name": "previousOwner",
          "type": "address"
        },
        {
          "indexed": true,
          "internalType": "address",
          "name": "newOwner",
          "type": "address"
        }
      ],
      "name": "OwnershipTransferred",
      "type": "event"
    },
    {
      "anonymous": false,
      "inputs": [
        {
          "indexed": true,
          "internalType": "address",
          "name": "from",
          "type": "address"
        },
        {
          "indexed": true,
          "internalType": "address",
          "name": "to",
          "type": "address"
        },
        {
          "indexed": true,
          "internalType": "uint256",
          "name": "tokenId",
          "type": "uint256"
        }
      ],
      "name": "Transfer",
      "type": "event"
    },
    {
      "inputs": [
        {
          "internalType": "address",
          "name": "to",
          "type": "address"
        },
        {
          "internalType": "uint256",
          "name": "tokenId",
          "type": "uint256"
        }
      ],
      "name": "approve",
      "outputs": [],
      "stateMutability": "nonpayable",
      "type": "function"
    },
    {
      "inputs": [
        {
          "internalType": "address",
          "name": "owner",
          "type": "address"
        }
      ],
      "name": "balanceOf",
      "outputs": [
        {
          "internalType": "uint256",
          "name": "",
          "type": "uint256"
        }
      ],
      "stateMutability": "view",
      "type": "function"
    },
    {
      "inputs": [
        {
          "internalType": "uint256",
          "name": "tokenId",
          "type": "uint256"
        }
      ],
      "name": "getApproved",
      "outputs": [
        {
          "internalType": "address",
          "name": "",
          "type": "address"
        }
      ],
      "stateMutability": "view",
      "type": "function"
    },
    {
      "inputs": [
        {
          "internalType": "address",
          "name": "",
          "type": "address"
        }
      ],
      "name": "hasMinted",
      "outputs": [
        {
          "internalType": "bool",
          "name": "",
          "type": "bool"
        }
      ],
      "stateMutability": "view",
      "type": "function"
    },
    {
      "inputs": [
        {
          "internalType": "address",
          "name": "user",
          "type": "address"
        }
      ],
      "name": "hasMintedNFT",
      "outputs": [
        {
          "internalType": "bool",
          "name": "",
          "type": "bool"
        }
      ],
      "stateMutability": "view",
      "type": "function"
    },
    {
      "inputs": [
        {
          "internalType": "address",
          "name": "owner",
          "type": "address"
        },
        {
          "internalType": "address",
          "name": "operator",
          "type": "address"
        }
      ],
      "name": "isApprovedForAll",
      "outputs": [
        {
          "internalType": "bool",
          "name": "",
          "type": "bool"
        }
      ],
      "stateMutability": "view",
      "type": "function"
    },
    {
      "inputs": [],
      "name": "maxSupply",
      "outputs": [
        {
          "internalType": "uint256",
          "name": "",
          "type": "uint256"
        }
      ],
      "stateMutability": "view",
      "type": "function"
    },
    {
      "inputs": [],
      "name": "name",
      "outputs": [
        {
          "internalType": "string",
          "name": "",
          "type": "string"
        }
      ],
      "stateMutability": "view",
      "type": "function"
    },
    {
      "inputs": [],
      "name": "owner",
      "outputs": [
        {
          "internalType": "address",
          "name": "",
          "type": "address"
        }
      ],
      "stateMutability": "view",
      "type": "function"
    },
    {
      "inputs": [
        {
          "internalType": "uint256",
          "name": "tokenId",
          "type": "uint256"
        }
      ],
      "name": "ownerOf",
      "outputs": [
        {
          "internalType": "address",
          "name": "",
          "type": "address"
        }
      ],
      "stateMutability": "view",
      "type": "function"
    },
    {
      "inputs": [],
      "name": "renounceOwnership",
      "outputs": [],
      "stateMutability": "nonpayable",
      "type": "function"
    },
    {
      "inputs": [
        {
          "internalType": "address",
          "name": "to",
          "type": "address"
        },
        {
          "internalType": "string",
          "name": "uri",
          "type": "string"
        }
      ],
      "name": "safeMint",
      "outputs": [],
      "stateMutability": "nonpayable",
      "type": "function"
    },
    {
      "inputs": [
        {
          "internalType": "address",
          "name": "from",
          "type": "address"
        },
        {
          "internalType": "address",
          "name": "to",
          "type": "address"
        },
        {
          "internalType": "uint256",
          "name": "tokenId",
          "type": "uint256"
        }
      ],
      "name": "safeTransferFrom",
      "outputs": [],
      "stateMutability": "nonpayable",
      "type": "function"
    },
    {
      "inputs": [
        {
          "internalType": "address",
          "name": "from",
          "type": "address"
        },
        {
          "internalType": "address",
          "name": "to",
          "type": "address"
        },
        {
          "internalType": "uint256",
          "name": "tokenId",
          "type": "uint256"
        },
        {
          "internalType": "bytes",
          "name": "data",
          "type": "bytes"
        }
      ],
      "name": "safeTransferFrom",
      "outputs": [],
      "stateMutability": "nonpayable",
      "type": "function"
    },
    {
      "inputs": [
        {
          "internalType": "address",
          "name": "operator",
          "type": "address"
        },
        {
          "internalType": "bool",
          "name": "approved",
          "type": "bool"
        }
      ],
      "name": "setApprovalForAll",
      "outputs": [],
      "stateMutability": "nonpayable",
      "type": "function"
    },
    {
      "inputs": [
        {
          "internalType": "bytes4",
          "name": "interfaceId",
          "type": "bytes4"
        }
      ],
      "name": "supportsInterface",
      "outputs": [
        {
          "internalType": "bool",
          "name": "",
          "type": "bool"
        }
      ],
      "stateMutability": "view",
      "type": "function"
    },
    {
      "inputs": [],
      "name": "symbol",
      "outputs": [
        {
          "internalType": "string",
          "name": "",
          "type": "string"
        }
      ],
      "stateMutability": "view",
      "type": "function"
    },
    {
      "inputs": [
        {
          "internalType": "uint256",
          "name": "tokenId",
          "type": "uint256"
        }
      ],
      "name": "tokenURI",
      "outputs": [
        {
          "internalType": "string",
          "name": "",
          "type": "string"
        }
      ],
      "stateMutability": "view",
      "type": "function"
    },
    {
      "inputs": [],
      "name": "totalSupply",
      "outputs": [
        {
          "internalType": "uint256",
          "name": "",
          "type": "uint256"
        }
      ],
      "stateMutability": "view",
      "type": "function"
    },
    {
      "inputs": [
        {
          "internalType": "address",
          "name": "from",
          "type": "address"
        },
        {
          "internalType": "address",
          "name": "to",
          "type": "address"
        },
        {
          "internalType": "uint256",
          "name": "tokenId",
          "type": "uint256"
        }
      ],
      "name": "transferFrom",
      "outputs": [],
      "stateMutability": "nonpayable",
      "type": "function"
    },
    {
      "inputs": [
        {
          "internalType": "address",
          "name": "newOwner",
          "type": "address"
        }
      ],
      "name": "transferOwnership",
      "outputs": [],
      "stateMutability": "nonpayable",
      "type": "function"
    }
  ],
  "bytecode": "0x60806040526064600a553480156200001657600080fd5b50604051620035f9380380620035f983398181016040528101906200003c919062000437565b6040518060400160405280600f81526020017f4d794e4654436f6c6c656374696f6e00000000000000000000000000000000008152506040518060400160405280600481526020017f4d4e4654000000000000000000000000000000000000000000000000000000008152508160009080519060200190620000c0929190620001ea565b508060019080519060200190620000d9929190620001ea565b505050620000fc620000f06200011c60201b60201c565b6200012460201b60201c565b80600b908051906020019062000114929190620001ea565b5050620004ed565b600033905090565b6000600760009054906101000a900473ffffffffffffffffffffffffffffffffffffffff16905081600760006101000a81548173ffffffffffffffffffffffffffffffffffffffff021916908373ffffffffffffffffffffffffffffffffffffffff1602179055508173ffffffffffffffffffffffffffffffffffffffff168173ffffffffffffffffffffffffffffffffffffffff167f8be0079c531659141344cd1fd0a4f28419497f9722a3daafe3b4186f6b6457e060405160405180910390a35050565b828054620001f890620004b7565b90600052602060002090601f0160209004810192826200021c576000855562000268565b82601f106200023757805160ff191683800117855562000268565b8280016001018555821562000268579182015b82811115620002675782518255916020019190600101906200024a565b5b5090506200027791906200027b565b5090565b5b80821115620002965760008160009055506001016200027c565b5090565b6000604051905090565b600080fd5b600080fd5b600080fd5b600080fd5b6000601f19601f8301169050919050565b7f4e487b7100000000000000000000000000000000000000000000000000000000600052604160045260246000fd5b6200030382620002b8565b810181811067ffffffffffffffff82111715620003255762000324620002c9565b5b80604052505050565b60006200033a6200029a565b9050620003488282620002f8565b919050565b600067ffffffffffffffff8211156200036b576200036a620002c9565b5b6200037682620002b8565b9050602081019050919050565b60005b83811015620003a357808201518184015260208101905062000386565b83811115620003b3576000848401525b50505050565b6000620003d0620003ca846200034d565b6200032e565b905082815260208101848484011115620003ef57620003ee620002b3565b5b620003fc84828562000383565b509392505050565b600082601f8301126200041c576200041b620002ae565b5b81516200042e848260208601620003b9565b91505092915050565b60006020828403121562000450576200044f620002a4565b5b600082015167ffffffffffffffff811115620004715762000470620002a9565b5b6200047f8482850162000404565b91505092915050565b7f4e487b7100000000000000000000000000000000000000000000000000000000600052602260045260246000fd5b60006002820490506001821680620004d057607f821691505b60208210811415620004e757620004e662000488565b5b50919050565b6130fc80620004fd6000396000f3fe608060405234801561001057600080fd5b50600436106101375760003560e01c8063715018a6116100b8578063c87b56dd1161007c578063c87b56dd1461033a578063d204c45e1461036a578063d5abeb0114610386578063e28cb25a146103a4578063e985e9c5146103d4578063f2fde38b1461040457610137565b8063715018a6146102bc5780638da5cb5b146102c657806395d89b41146102e4578063a22cb46514610302578063b88d4fde1461031e57610137565b806323b872dd116100ff57806323b872dd146101f457806338e21cce1461021057806342842e0e146102405780636352211e1461025c57806370a082311461028c57610137565b806301ffc9a71461013c57806306fdde031461016c578063081812fc1461018a578063095ea7b3146101ba57806318160ddd146101d6575b600080fd5b61015660048036038101906101519190612089565b610420565b60405161016391906120d1565b60405180910390f35b610174610432565b6040516101819190612185565b60405180910390f35b6101a4600480360381019061019f91906121dd565b6104c4565b6040516101b1919061224b565b60405180910390f35b6101d460048036038101906101cf9190612292565b61050a565b005b6101de610622565b6040516101eb91906122e1565b60405180910390f35b61020e600480360381019061020991906122fc565b610633565b005b61022a6004803603810190610225919061234f565b610693565b60405161023791906120d1565b60405180910390f35b61025a600480360381019061025591906122fc565b6106b3565b005b610276600480360381019061027191906121dd565b6106d3565b604051610283919061224b565b60405180910390f35b6102a660048036038101906102a1919061234f565b61075a565b6040516102b391906122e1565b60405180910390f35b6102c4610812565b005b6102ce610826565b6040516102db919061224b565b60405180910390f35b6102ec610850565b6040516102f99190612185565b60405180910390f35b61031c600480360381019061031791906123a8565b6108e2565b005b6103386004803603810190610333919061251d565b6108f8565b005b610354600480360381019061034f91906121dd565b61095a565b6040516103619190612185565b60405180910390f35b610384600480360381019061037f9190612641565b61096c565b005b61038e610acf565b60405161039b91906122e1565b60405180910390f35b6103be60048036038101906103b9919061234f565b610ad5565b6040516103cb91906120d1565b60405180910390f35b6103ee60048036038101906103e9919061269d565b610b2b565b6040516103fb91906120d1565b60405180910390f35b61041e6004803603810190610419919061234f565b610bbf565b005b600061042b82610c43565b9050919050565b6060600080546104419061270c565b80601f016020809104026020016040519081016040528092919081815260200182805461046d9061270c565b80156104ba5780601f1061048f576101008083540402835291602001916104ba565b820191906000526020600020905b81548152906001019060200180831161049d57829003601f168201915b5050505050905090565b60006104cf82610ca4565b6004600083815260200190815260200160002060009054906101000a900473ffffffffffffffffffffffffffffffffffffffff169050919050565b6000610515826106d3565b90508073ffffffffffffffffffffffffffffffffffffffff168373ffffffffffffffffffffffffffffffffffffffff161415610586576040517f08c379a000000000000000000000000000000000000000000000000000000000815260040161057d906127b0565b60405180910390fd5b8073ffffffffffffffffffffffffffffffffffffffff166105a5610cef565b73ffffffffffffffffffffffffffffffffffffffff1614806105d457506105d3816105ce610cef565b610b2b565b5b610613576040517f08c379a000000000000000000000000000000000000000000000000000000000815260040161060a90612842565b60405180910390fd5b61061d8383610cf7565b505050565b600061062e6008610db0565b905090565b61064461063e610cef565b82610dbe565b610683576040517f08c379a000000000000000000000000000000000000000000000000000000000815260040161067a906128d4565b60405180910390fd5b61068e838383610e53565b505050565b60096020528060005260406000206000915054906101000a900460ff1681565b6106ce838383604051806020016040528060008152506108f8565b505050565b6000806106df8361114d565b9050600073ffffffffffffffffffffffffffffffffffffffff168173ffffffffffffffffffffffffffffffffffffffff161415610751576040517f08c379a000000000000000000000000000000000000000000000000000000000815260040161074890612940565b60405180910390fd5b80915050919050565b60008073ffffffffffffffffffffffffffffffffffffffff168273ffffffffffffffffffffffffffffffffffffffff1614156107cb576040517f08c379a00000000000000000000000000000000000000000000000000000000081526004016107c2906129d2565b60405180910390fd5b600360008373ffffffffffffffffffffffffffffffffffffffff1673ffffffffffffffffffffffffffffffffffffffff168152602001908152602001600020549050919050565b61081a61118a565b6108246000611208565b565b6000600760009054906101000a900473ffffffffffffffffffffffffffffffffffffffff16905090565b60606001805461085f9061270c565b80601f016020809104026020016040519081016040528092919081815260200182805461088b9061270c565b80156108d85780601f106108ad576101008083540402835291602001916108d8565b820191906000526020600020905b8154815290600101906020018083116108bb57829003601f168201915b5050505050905090565b6108f46108ed610cef565b83836112ce565b5050565b610909610903610cef565b83610dbe565b610948576040517f08c379a000000000000000000000000000000000000000000000000000000000815260040161093f906128d4565b60405180910390fd5b6109548484848461143b565b50505050565b606061096582611497565b9050919050565b600960008373ffffffffffffffffffffffffffffffffffffffff1673ffffffffffffffffffffffffffffffffffffffff16815260200190815260200160002060009054906101000a900460ff16156109f9576040517f08c379a00000000000000000000000000000000000000000000000000000000081526004016109f090612a3e565b60405180910390fd5b600a54610a066008610db0565b10610a46576040517f08c379a0000000000000000000000000000000000000000000000000000000008152600401610a3d90612aaa565b60405180910390fd5b6000610a526008610db0565b9050610a5e60086115aa565b610a6883826115c0565b610a7281836115de565b6001600960008573ffffffffffffffffffffffffffffffffffffffff1673ffffffffffffffffffffffffffffffffffffffff16815260200190815260200160002060006101000a81548160ff021916908315150217905550505050565b600a5481565b6000600960008373ffffffffffffffffffffffffffffffffffffffff1673ffffffffffffffffffffffffffffffffffffffff16815260200190815260200160002060009054906101000a900460ff169050919050565b6000600560008473ffffffffffffffffffffffffffffffffffffffff1673ffffffffffffffffffffffffffffffffffffffff16815260200190815260200160002060008373ffffffffffffffffffffffffffffffffffffffff1673ffffffffffffffffffffffffffffffffffffffff16815260200190815260200160002060009054906101000a900460ff16905092915050565b610bc761118a565b600073ffffffffffffffffffffffffffffffffffffffff168173ffffffffffffffffffffffffffffffffffffffff161415610c37576040517f08c379a0000000000000000000000000000000000000000000000000000000008152600401610c2e90612b3c565b60405180910390fd5b610c4081611208565b50565b6000634906490660e01b7bffffffffffffffffffffffffffffffffffffffffffffffffffffffff1916827bffffffffffffffffffffffffffffffffffffffffffffffffffffffff19161480610c9d5750610c9c82611689565b5b9050919050565b610cad8161176b565b610cec576040517f08c379a0000000000000000000000000000000000000000000000000000000008152600401610ce390612940565b60405180910390fd5b50565b600033905090565b816004600083815260200190815260200160002060006101000a81548173ffffffffffffffffffffffffffffffffffffffff021916908373ffffffffffffffffffffffffffffffffffffffff160217905550808273ffffffffffffffffffffffffffffffffffffffff16610d6a836106d3565b73ffffffffffffffffffffffffffffffffffffffff167f8c5be1e5ebec7d5bd14f71427d1e84f3dd0314c0f7b2291e5b200ac8c7c3b92560405160405180910390a45050565b600081600001549050919050565b600080610dca836106d3565b90508073ffffffffffffffffffffffffffffffffffffffff168473ffffffffffffffffffffffffffffffffffffffff161480610e0c5750610e0b8185610b2b565b5b80610e4a57508373ffffffffffffffffffffffffffffffffffffffff16610e32846104c4565b73ffffffffffffffffffffffffffffffffffffffff16145b91505092915050565b8273ffffffffffffffffffffffffffffffffffffffff16610e73826106d3565b73ffffffffffffffffffffffffffffffffffffffff1614610ec9576040517f08c379a0000000000000000000000000000000000000000000000000000000008152600401610ec090612bce565b60405180910390fd5b600073ffffffffffffffffffffffffffffffffffffffff168273ffffffffffffffffffffffffffffffffffffffff161415610f39576040517f08c379a0000000000000000000000000000000000000000000000000000000008152600401610f3090612c60565b60405180910390fd5b610f4683838360016117ac565b8273ffffffffffffffffffffffffffffffffffffffff16610f66826106d3565b73ffffffffffffffffffffffffffffffffffffffff1614610fbc576040517f08c379a0000000000000000000000000000000000000000000000000000000008152600401610fb390612bce565b60405180910390fd5b6004600082815260200190815260200160002060006101000a81549073ffffffffffffffffffffffffffffffffffffffff02191690556001600360008573ffffffffffffffffffffffffffffffffffffffff1673ffffffffffffffffffffffffffffffffffffffff168152602001908152602001600020600082825403925050819055506001600360008473ffffffffffffffffffffffffffffffffffffffff1673ffffffffffffffffffffffffffffffffffffffff16815260200190815260200160002060008282540192505081905550816002600083815260200190815260200160002060006101000a81548173ffffffffffffffffffffffffffffffffffffffff021916908373ffffffffffffffffffffffffffffffffffffffff160217905550808273ffffffffffffffffffffffffffffffffffffffff168473ffffffffffffffffffffffffffffffffffffffff167fddf252ad1be2c89b69c2b068fc378daa952ba7f163c4a11628f55a4df523b3ef60405160405180910390a461114883838360016117b2565b505050565b60006002600083815260200190815260200160002060009054906101000a900473ffffffffffffffffffffffffffffffffffffffff169050919050565b611192610cef565b73ffffffffffffffffffffffffffffffffffffffff166111b0610826565b73ffffffffffffffffffffffffffffffffffffffff1614611206576040517f08c379a00000000000000000000000000000000000000000000000000000000081526004016111fd90612ccc565b60405180910390fd5b565b6000600760009054906101000a900473ffffffffffffffffffffffffffffffffffffffff16905081600760006101000a81548173ffffffffffffffffffffffffffffffffffffffff021916908373ffffffffffffffffffffffffffffffffffffffff1602179055508173ffffffffffffffffffffffffffffffffffffffff168173ffffffffffffffffffffffffffffffffffffffff167f8be0079c531659141344cd1fd0a4f28419497f9722a3daafe3b4186f6b6457e060405160405180910390a35050565b8173ffffffffffffffffffffffffffffffffffffffff168373ffffffffffffffffffffffffffffffffffffffff16141561133d576040517f08c379a000000000000000000000000000000000000000000000000000000000815260040161133490612d38565b60405180910390fd5b80600560008573ffffffffffffffffffffffffffffffffffffffff1673ffffffffffffffffffffffffffffffffffffffff16815260200190815260200160002060008473ffffffffffffffffffffffffffffffffffffffff1673ffffffffffffffffffffffffffffffffffffffff16815260200190815260200160002060006101000a81548160ff0219169083151502179055508173ffffffffffffffffffffffffffffffffffffffff168373ffffffffffffffffffffffffffffffffffffffff167f17307eab39ab6107e8899845ad3d59bd9653f200f220920489ca2b5937696c318360405161142e91906120d1565b60405180910390a3505050565b611446848484610e53565b611452848484846117b8565b611491576040517f08c379a000000000000000000000000000000000000000000000000000000000815260040161148890612dca565b60405180910390fd5b50505050565b60606114a282610ca4565b60006006600084815260200190815260200160002080546114c29061270c565b80601f01602080910402602001604051908101604052809291908181526020018280546114ee9061270c565b801561153b5780601f106115105761010080835404028352916020019161153b565b820191906000526020600020905b81548152906001019060200180831161151e57829003601f168201915b50505050509050600061154c61194f565b90506000815114156115625781925050506115a5565b60008251111561159757808260405160200161157f929190612e26565b604051602081830303815290604052925050506115a5565b6115a0846119e1565b925050505b919050565b6001816000016000828254019250508190555050565b6115da828260405180602001604052806000815250611a49565b5050565b6115e78261176b565b611626576040517f08c379a000000000000000000000000000000000000000000000000000000000815260040161161d90612ebc565b60405180910390fd5b8060066000848152602001908152602001600020908051906020019061164d929190611f7a565b507ff8e1a15aba9398e019f0b49df1a4fde98ee17ae345cb5f6b5e2c27f5033e8ce78260405161167d91906122e1565b60405180910390a15050565b60007f80ac58cd000000000000000000000000000000000000000000000000000000007bffffffffffffffffffffffffffffffffffffffffffffffffffffffff1916827bffffffffffffffffffffffffffffffffffffffffffffffffffffffff1916148061175457507f5b5e139f000000000000000000000000000000000000000000000000000000007bffffffffffffffffffffffffffffffffffffffffffffffffffffffff1916827bffffffffffffffffffffffffffffffffffffffffffffffffffffffff1916145b80611764575061176382611aa4565b5b9050919050565b60008073ffffffffffffffffffffffffffffffffffffffff1661178d8361114d565b73ffffffffffffffffffffffffffffffffffffffff1614159050919050565b50505050565b50505050565b60006117d98473ffffffffffffffffffffffffffffffffffffffff16611b0e565b15611942578373ffffffffffffffffffffffffffffffffffffffff1663150b7a02611802610cef565b8786866040518563ffffffff1660e01b81526004016118249493929190612f31565b602060405180830381600087803b15801561183e57600080fd5b505af192505050801561186f57506040513d601f19601f8201168201806040525081019061186c9190612f92565b60015b6118f2573d806000811461189f576040519150601f19603f3d011682016040523d82523d6000602084013e6118a4565b606091505b506000815114156118ea576040517f08c379a00000000000000000000000000000000000000000000000000000000081526004016118e190612dca565b60405180910390fd5b805181602001fd5b63150b7a0260e01b7bffffffffffffffffffffffffffffffffffffffffffffffffffffffff1916817bffffffffffffffffffffffffffffffffffffffffffffffffffffffff191614915050611947565b600190505b949350505050565b6060600b805461195e9061270c565b80601f016020809104026020016040519081016040528092919081815260200182805461198a9061270c565b80156119d75780601f106119ac576101008083540402835291602001916119d7565b820191906000526020600020905b8154815290600101906020018083116119ba57829003601f168201915b5050505050905090565b60606119ec82610ca4565b60006119f661194f565b90506000815111611a165760405180602001604052806000815250611a41565b80611a2084611b31565b604051602001611a31929190612e26565b6040516020818303038152906040525b915050919050565b611a538383611c09565b611a6060008484846117b8565b611a9f576040517f08c379a0000000000000000000000000000000000000000000000000000000008152600401611a9690612dca565b60405180910390fd5b505050565b60007f01ffc9a7000000000000000000000000000000000000000000000000000000007bffffffffffffffffffffffffffffffffffffffffffffffffffffffff1916827bffffffffffffffffffffffffffffffffffffffffffffffffffffffff1916149050919050565b6000808273ffffffffffffffffffffffffffffffffffffffff163b119050919050565b606060006001611b4084611e27565b01905060008167ffffffffffffffff811115611b5f57611b5e6123f2565b5b6040519080825280601f01601f191660200182016040528015611b915781602001600182028036833780820191505090505b509050600082602001820190505b600115611bfe578080600190039150507f3031323334353637383961626364656600000000000000000000000000000000600a86061a8153600a8581611be857611be7612fbf565b5b0494506000851415611bf957611bfe565b611b9f565b819350505050919050565b600073ffffffffffffffffffffffffffffffffffffffff168273ffffffffffffffffffffffffffffffffffffffff161415611c79576040517f08c379a0000000000000000000000000000000000000000000000000000000008152600401611c709061303a565b60405180910390fd5b611c828161176b565b15611cc2576040517f08c379a0000000000000000000000000000000000000000000000000000000008152600401611cb9906130a6565b60405180910390fd5b611cd06000838360016117ac565b611cd98161176b565b15611d19576040517f08c379a0000000000000000000000000000000000000000000000000000000008152600401611d10906130a6565b60405180910390fd5b6001600360008473ffffffffffffffffffffffffffffffffffffffff1673ffffffffffffffffffffffffffffffffffffffff16815260200190815260200160002060008282540192505081905550816002600083815260200190815260200160002060006101000a81548173ffffffffffffffffffffffffffffffffffffffff021916908373ffffffffffffffffffffffffffffffffffffffff160217905550808273ffffffffffffffffffffffffffffffffffffffff16600073ffffffffffffffffffffffffffffffffffffffff167fddf252ad1be2c89b69c2b068fc378daa952ba7f163c4a11628f55a4df523b3ef60405160405180910390a4611e236000838360016117b2565b5050565b600080600090507a184f03e93ff9f4daa797ed6e38ed64bf6a1f0100000000000000008310611e85577a184f03e93ff9f4daa797ed6e38ed64bf6a1f0100000000000000008381611e7b57611e7a612fbf565b5b0492506040810190505b6d04ee2d6d415b85acef81000000008310611ec2576d04ee2d6d415b85acef81000000008381611eb857611eb7612fbf565b5b0492506020810190505b662386f26fc100008310611ef157662386f26fc100008381611ee757611ee6612fbf565b5b0492506010810190505b6305f5e1008310611f1a576305f5e1008381611f1057611f0f612fbf565b5b0492506008810190505b6127108310611f3f576127108381611f3557611f34612fbf565b5b0492506004810190505b60648310611f625760648381611f5857611f57612fbf565b5b0492506002810190505b600a8310611f71576001810190505b80915050919050565b828054611f869061270c565b90600052602060002090601f016020900481019282611fa85760008555611fef565b82601f10611fc157805160ff1916838001178555611fef565b82800160010185558215611fef579182015b82811115611fee578251825591602001919060010190611fd3565b5b509050611ffc9190612000565b5090565b5b80821115612019576000816000905550600101612001565b5090565b6000604051905090565b600080fd5b600080fd5b60007fffffffff0000000000000000000000000000000000000000000000000000000082169050919050565b61206681612031565b811461207157600080fd5b50565b6000813590506120838161205d565b92915050565b60006020828403121561209f5761209e612027565b5b60006120ad84828501612074565b91505092915050565b60008115159050919050565b6120cb816120b6565b82525050565b60006020820190506120e660008301846120c2565b92915050565b600081519050919050565b600082825260208201905092915050565b60005b8381101561212657808201518184015260208101905061210b565b83811115612135576000848401525b50505050565b6000601f19601f8301169050919050565b6000612157826120ec565b61216181856120f7565b9350612171818560208601612108565b61217a8161213b565b840191505092915050565b6000602082019050818103600083015261219f818461214c565b905092915050565b6000819050919050565b6121ba816121a7565b81146121c557600080fd5b50565b6000813590506121d7816121b1565b92915050565b6000602082840312156121f3576121f2612027565b5b6000612201848285016121c8565b91505092915050565b600073ffffffffffffffffffffffffffffffffffffffff82169050919050565b60006122358261220a565b9050919050565b6122458161222a565b82525050565b6000602082019050612260600083018461223c565b92915050565b61226f8161222a565b811461227a57600080fd5b50565b60008135905061228c81612266565b92915050565b600080604083850312156122a9576122a8612027565b5b60006122b78582860161227d565b92505060206122c8858286016121c8565b9150509250929050565b6122db816121a7565b82525050565b60006020820190506122f660008301846122d2565b92915050565b60008060006060848603121561231557612314612027565b5b60006123238682870161227d565b93505060206123348682870161227d565b9250506040612345868287016121c8565b9150509250925092565b60006020828403121561236557612364612027565b5b60006123738482850161227d565b91505092915050565b612385816120b6565b811461239057600080fd5b50565b6000813590506123a28161237c565b92915050565b600080604083850312156123bf576123be612027565b5b60006123cd8582860161227d565b92505060206123de85828601612393565b9150509250929050565b600080fd5b600080fd5b7f4e487b7100000000000000000000000000000000000000000000000000000000600052604160045260246000fd5b61242a8261213b565b810181811067ffffffffffffffff82111715612449576124486123f2565b5b80604052505050565b600061245c61201d565b90506124688282612421565b919050565b600067ffffffffffffffff821115612488576124876123f2565b5b6124918261213b565b9050602081019050919050565b82818337600083830152505050565b60006124c06124bb8461246d565b612452565b9050828152602081018484840111156124dc576124db6123ed565b5b6124e784828561249e565b509392505050565b600082601f830112612504576125036123e8565b5b81356125148482602086016124ad565b91505092915050565b6000806000806080858703121561253757612536612027565b5b60006125458782880161227d565b94505060206125568782880161227d565b9350506040612567878288016121c8565b925050606085013567ffffffffffffffff8111156125885761258761202c565b5b612594878288016124ef565b91505092959194509250565b600067ffffffffffffffff8211156125bb576125ba6123f2565b5b6125c48261213b565b9050602081019050919050565b60006125e46125df846125a0565b612452565b905082815260208101848484011115612600576125ff6123ed565b5b61260b84828561249e565b509392505050565b600082601f830112612628576126276123e8565b5b81356126388482602086016125d1565b91505092915050565b6000806040838503121561265857612657612027565b5b60006126668582860161227d565b925050602083013567ffffffffffffffff8111156126875761268661202c565b5b61269385828601612613565b9150509250929050565b600080604083850312156126b4576126b3612027565b5b60006126c28582860161227d565b92505060206126d38582860161227d565b9150509250929050565b7f4e487b7100000000000000000000000000000000000000000000000000000000600052602260045260246000fd5b6000600282049050600182168061272457607f821691505b60208210811415612738576127376126dd565b5b50919050565b7f4552433732313a20617070726f76616c20746f2063757272656e74206f776e6560008201527f7200000000000000000000000000000000000000000000000000000000000000602082015250565b600061279a6021836120f7565b91506127a58261273e565b604082019050919050565b600060208201905081810360008301526127c98161278d565b9050919050565b7f4552433732313a20617070726f76652063616c6c6572206973206e6f7420746f60008201527f6b656e206f776e6572206f7220617070726f76656420666f7220616c6c000000602082015250565b600061282c603d836120f7565b9150612837826127d0565b604082019050919050565b6000602082019050818103600083015261285b8161281f565b9050919050565b7f4552433732313a2063616c6c6572206973206e6f7420746f6b656e206f776e6560008201527f72206f7220617070726f76656400000000000000000000000000000000000000602082015250565b60006128be602d836120f7565b91506128c982612862565b604082019050919050565b600060208201905081810360008301526128ed816128b1565b9050919050565b7f4552433732313a20696e76616c696420746f6b656e2049440000000000000000600082015250565b600061292a6018836120f7565b9150612935826128f4565b602082019050919050565b600060208201905081810360008301526129598161291d565b9050919050565b7f4552433732313a2061646472657373207a65726f206973206e6f74206120766160008201527f6c6964206f776e65720000000000000000000000000000000000000000000000602082015250565b60006129bc6029836120f7565b91506129c782612960565b604082019050919050565b600060208201905081810360008301526129eb816129af565b9050919050565b7f4164647265737320616c7265616479206d696e74656420616e204e4654000000600082015250565b6000612a28601d836120f7565b9150612a33826129f2565b602082019050919050565b60006020820190508181036000830152612a5781612a1b565b9050919050565b7f4d617820737570706c7920726561636865640000000000000000000000000000600082015250565b6000612a946012836120f7565b9150612a9f82612a5e565b602082019050919050565b60006020820190508181036000830152612ac381612a87565b9050919050565b7f4f776e61626c653a206e6577206f776e657220697320746865207a65726f206160008201527f6464726573730000000000000000000000000000000000000000000000000000602082015250565b6000612b266026836120f7565b9150612b3182612aca565b604082019050919050565b60006020820190508181036000830152612b5581612b19565b9050919050565b7f4552433732313a207472616e736665722066726f6d20696e636f72726563742060008201527f6f776e6572000000000000000000000000000000000000000000000000000000602082015250565b6000612bb86025836120f7565b9150612bc382612b5c565b604082019050919050565b60006020820190508181036000830152612be781612bab565b9050919050565b7f4552433732313a207472616e7366657220746f20746865207a65726f2061646460008201527f7265737300000000000000000000000000000000000000000000000000000000602082015250565b6000612c4a6024836120f7565b9150612c5582612bee565b604082019050919050565b60006020820190508181036000830152612c7981612c3d565b9050919050565b7f4f776e61626c653a2063616c6c6572206973206e6f7420746865206f776e6572600082015250565b6000612cb66020836120f7565b9150612cc182612c80565b602082019050919050565b60006020820190508181036000830152612ce581612ca9565b9050919050565b7f4552433732313a20617070726f766520746f2063616c6c657200000000000000600082015250565b6000612d226019836120f7565b9150612d2d82612cec565b602082019050919050565b60006020820190508181036000830152612d5181612d15565b9050919050565b7f4552433732313a207472616e7366657220746f206e6f6e20455243373231526560008201527f63656976657220696d706c656d656e7465720000000000000000000000000000602082015250565b6000612db46032836120f7565b9150612dbf82612d58565b604082019050919050565b60006020820190508181036000830152612de381612da7565b9050919050565b600081905092915050565b6000612e00826120ec565b612e0a8185612dea565b9350612e1a818560208601612108565b80840191505092915050565b6000612e328285612df5565b9150612e3e8284612df5565b91508190509392505050565b7f45524337323155524953746f726167653a2055524920736574206f66206e6f6e60008201527f6578697374656e7420746f6b656e000000000000000000000000000000000000602082015250565b6000612ea6602e836120f7565b9150612eb182612e4a565b604082019050919050565b60006020820190508181036000830152612ed581612e99565b9050919050565b600081519050919050565b600082825260208201905092915050565b6000612f0382612edc565b612f0d8185612ee7565b9350612f1d818560208601612108565b612f268161213b565b840191505092915050565b6000608082019050612f46600083018761223c565b612f53602083018661223c565b612f6060408301856122d2565b8181036060830152612f728184612ef8565b905095945050505050565b600081519050612f8c8161205d565b92915050565b600060208284031215612fa857612fa7612027565b5b6000612fb684828501612f7d565b91505092915050565b7f4e487b7100000000000000000000000000000000000000000000000000000000600052601260045260246000fd5b7f4552433732313a206d696e7420746f20746865207a65726f2061646472657373600082015250565b60006130246020836120f7565b915061302f82612fee565b602082019050919050565b6000602082019050818103600083015261305381613017565b9050919050565b7f4552433732313a20746f6b656e20616c7265616479206d696e74656400000000600082015250565b6000613090601c836120f7565b915061309b8261305a565b602082019050919050565b600060208201905081810360008301526130bf81613083565b905091905056fea2646970667358221220e7eb8c8f518f39b232496ddda073444ea7c272078dcc6011bead50b26558840a64736f6c63430008090033",
  "linkReferences": {},
  "deployedLinkReferences": {}
}